:100000000C94C0000C94EA000C94EA000C94EA00F2
:100010000C94EA000C94EA000C94EA000C94EA00B8
:100020000C94EA000C94EA000C94EA000C94EA00A8
:100030000C94E7010C94EA000C94EA000C942D0156
:100040000C94EA000C94EA000C94EA000C94EA0088
:100050000C94EA000C94EA000C94EA000C94080159
:100060000C94EA000C9447030C94EA000C94EA0008
:100070000C94EA000C94EA000C94EA000C94EA0058
:100080000C94EA000C94EA000C94EA000C94EA0048
:100090000C9488030C94EA000C94EA000C94EA0097
:1000A0000C94EA000C94EA000C94EA000C94EA0028
:1000B0000C94EA000C94EA000C94EA000C94EA0018
:1000C0000C94EA000C94EA000C94EA000021242726
:1000D0002A2D3033002225282B2E313400202326D0
:1000E000292C2F3205050505030303030101010433
:1000F00004030606060606060606010405010501B8
:1001000003020202020202010202050504040304C2
:1001100004010304070707010208101020408004AF
:1001200008102040020204081020408001028020B4
:100130004004200101020408102001408040800199
:1001400002080408800410040201000008090000ED
:10015000000000000000000000000000000000009F
:10016000000000000000000000000000000000008F
:100170000000000000000000000000000000F40289
:1001800011241FBECFEFD1E2DEBFCDBF12E0A0E051
:10019000B2E0E8ECFAE000E00BBF02C007900D927D
:1001A000A230B107D9F714E0A2E0B2E001C01D927D
:1001B000A439B107E1F711E0C0E8D1E004C022970B
:1001C000FE010E945E05CE37D107C9F70E940101EA
:1001D0000C9462050C94000083E092E061E170E011
:1001E0000E942E0382E060E870E00E941E020895E3
:1001F00083E092E00E943E0382E061E00E948B0275
:1002000008950E9452010E94F8000E94EC00FDCF68
:100210001F920F920FB60F9211248F939F93AF935B
:10022000BF9380910C0290910D02A0910E02B091AB
:100230000F020196A11DB11D80930C0290930D0237
:10024000A0930E02B0930F02BF91AF919F918F9137
:100250000F900FBE0F901F9018951F920F920FB620
:100260000F9211248F939F93AF93BF9380911002AD
:1002700090911102A0911202B09113020196A11D5A
:10028000B11D8093100290931102A0931202B093BB
:100290001302BF91AF919F918F910F900FBE0F905E
:1002A0001F901895789484B7877F84BF10920C02B2
:1002B00010920D0210920E0210920F0284B582600D
:1002C00084BD84B5816084BD85B5826085BD85B5FA
:1002D000816085BDEEE6F0E0808181608083E1E8A9
:1002E000F0E0808182608083808181608083E0E8AB
:1002F000F0E0808181608083E1EBF0E080818460C8
:100300008083E1E9F0E0808184608083E0EBF0E0CD
:10031000808181608083E0E9F0E08081816080837A
:10032000E4E6F0E080818E7F8083ECE7F0E080817E
:100330008F778083808180648083EAE7F0E080812A
:1003400084608083808182608083808180688083F4
:100350001092C1001092C900089590910202982B4A
:100360009093020280FF32C0809164008E7F809360
:10037000640080917C008F7780937C0080917C006A
:10038000806480937C0080917A00846080937A00FE
:1003900080917A00826080937A0080917A008068F0
:1003A00080937A00809164008F77809364008091BD
:1003B00064008B7F80936400809164008D7F8093C4
:1003C0006400809165008E7F8093650008951F9280
:1003D0000F920FB60F920BB60F9211242F933F93EB
:1003E0004F935F936F937F938F939F93AF93BF933D
:1003F000EF93FF93F89481E080930002E0E6F0E051
:1004000080818068808380818F7B808383E060E04F
:100410000E94A9027894FF91EF91BF91AF919F91B3
:100420008F917F916F915F914F913F912F910F909D
:100430000BBE0F900FBE0F901F9018951F93CF9378
:10044000DF93182FEB0161E00E948B02E12FF0E0B7
:10045000E65BFE4F8491833051F480918000806888
:1004600080938000D0938900C093880050C084306E
:1004700051F480918000806280938000D0938B0043
:10048000C0938A0044C0813029F484B5806884BD5B
:10049000C7BD3DC0823029F484B5806284BDC8BD2B
:1004A00036C0863041F48091B00080688093B000FF
:1004B000C093B3002CC0873041F48091B0008062BB
:1004C0008093B000C093B40022C0883051F4809172
:1004D0009000806880939000D0939900C09398001A
:1004E00016C0893051F48091900080628093900012
:1004F000D0939B00C0939A000AC0C038D1051CF469
:10050000812F60E002C0812F61E00E94A902DF918B
:10051000CF911F910895282F30E0C901895E9E4F29
:10052000FC0194912C513F4FF9018491882381F073
:10053000E82FF0E0E453FF4FE491F0E0662329F464
:10054000808190958923808308958081892B808381
:100550000895482F50E0CA01865B9E4FFC0124910C
:10056000CA01895E9E4FFC0194914C515F4FFA0184
:1005700034913323C1F1222331F1233021F48091CE
:1005800080008F7705C0243031F4809180008F7D0A
:100590008093800018C0213019F484B58F7704C08F
:1005A000223021F484B58F7D84BD0DC0263021F426
:1005B0008091B0008F7705C0273029F48091B0007A
:1005C0008F7D8093B000E32FF0E0EC52FF4FE49179
:1005D000F0E0662329F48081909589238083089533
:1005E0008081892B808308951092030208950F93D0
:1005F0001F938C018DE0F80160810E94C9038AE09D
:10060000F80160810E94C9031F910F910895EF9234
:10061000FF920F931F93CF93DF93EC017A018B012D
:1006200077FF0CC08DE268810E94C9031095009588
:10063000F094E094E11CF11C011D111DC801B701EB
:100640002AE030E040E050E008810E94DA03DF91C8
:10065000CF911F910F91FF90EF9008950F931F93EB
:100660008C01AB01662757FD6095762F0E9407032A
:10067000C8010E94F7021F910F910895FC0160E0EC
:1006800076E980E090E040810E947C0408951F920A
:100690000F920FB60F920BB60F9211242F933F9328
:1006A0004F935F936F937F938F939F93AF93BF937A
:1006B000EF93FF934091C600E0910402F091050290
:1006C000CF01019660E072E00E94F8049C018091E5
:1006D0000602909107022817390739F0EC56FD4FB2
:1006E00040833093050220930402FF91EF91BF9164
:1006F000AF919F918F917F916F915F914F913F91BA
:100700002F910F900BBE0F900FBE0F901F9018955A
:100710001F920F920FB60F920BB60F9211242F93C8
:100720003F934F935F936F937F938F939F93AF9379
:10073000BF93EF93FF934091CE00E0910802F091B8
:100740000902CF01019660E870E00E94F8049C0164
:1007500080910A0290910B022817390739F0EC5E5C
:10076000FD4F40833093090220930802FF91EF91DF
:10077000BF91AF919F918F917F916F915F914F91B9
:100780003F912F910F900BBE0F900FBE0F901F90B7
:100790001895982F662339F48091C00085FFFCCF0F
:1007A0009093C60008958091C80085FFFCCF909378
:1007B000CE0008952F923F924F925F926F927F9258
:1007C0008F929F92AF92BF92CF92DF92EF92FF9261
:1007D0000F931F93DF93CF93CDB7DEB7A1970FB6DB
:1007E000F894DEBF0FBECDBF6B017C0129013A0139
:1007F00009A3611571058105910591F4002341F468
:100800008091C00085FFFCCF80E38093C6005BC071
:100810008091C80085FFFCCF80E38093CE0053C059
:100820008824992454011E010894211C311C810143
:10083000080D191DC701B601A30192010E940B0505
:10084000F80160830894811C911CA11CB11CC70194
:10085000B601A30192010E940B05C901DA016C01E6
:100860007D01C114D104E104F10409F79101280DBF
:10087000391DBE016F5F7F4FD501C4010197A109EA
:10088000B109AC01481959091BC0FA01E20FF31F65
:10089000E081EA3010F4E05D01C0E95CF9A1FF23DA
:1008A00039F48091C00085FFFCCFE093C60006C0FC
:1008B0008091C80085FFFCCFE093CE0021503040EE
:1008C0006217730711F7A1960FB6F894DEBF0FBE3B
:1008D000CDBFCF91DF911F910F91FF90EF90DF90EF
:1008E000CF90BF90AF909F908F907F906F905F90D0
:1008F0004F903F902F900895EF92FF920F931F9388
:100900007B018C014423C1F588E00E94AD01C80140
:10091000B70122E030E040E050E00E942D05205E6B
:100920003E45484F5F4FCA01B901A80197010E9497
:100930002D05C901DA010197A109B109292F3A2F23
:100940004B2F552747FD5A950196A11DB11D2093A8
:10095000C50081508093C4008091C1008061809364
:10096000C1008091C10088608093C1008091C10066
:1009700080688093C10037C080E10E94AD01C8014A
:10098000B70122E030E040E050E00E942D05205EFB
:100990003E45484F5F4FCA01B901A80197010E9427
:1009A0002D05C901DA010197A109B109292F3A2FB3
:1009B0004B2F552747FD5A950196A11DB11D209338
:1009C000CD0081508093CC008091C90080618093DC
:1009D000C9008091C90088608093C9008091C900D6
:1009E00080688093C9001F910F91FF90EF90089548
:1009F00097FB092E07260AD077FD04D049D006D0F0
:100A000000201AF4709561957F4F0895F6F7909540
:100A100081959F4F0895A1E21A2EAA1BBB1BFD01D1
:100A20000DC0AA1FBB1FEE1FFF1FA217B307E407CD
:100A3000F50720F0A21BB30BE40BF50B661F771F25
:100A4000881F991F1A9469F7609570958095909505
:100A50009B01AC01BD01CF01089597FB092E05262E
:100A60000ED057FD04D0D7DF0AD0001C38F45095C3
:100A70004095309521953F4F4F4F5F4F0895F6F7C2
:100A800090958095709561957F4F8F4F9F4F0895FA
:100A9000AA1BBB1B51E107C0AA1FBB1FA617B707A4
:100AA00010F0A61BB70B881F991F5A95A9F78095C0
:100AB0009095BC01CD010895EE0FFF1F0590F491B4
:080AC000E02D0994F894FFCF2A
:020AC80001002B
:00000001FF
